{
  "contractName": "MissingDiaries",
  "abi": [
    {
      "anonymous": false,
      "inputs": [
        {
          "indexed": false,
          "internalType": "address",
          "name": "recipient",
          "type": "address"
        },
        {
          "indexed": false,
          "internalType": "uint256",
          "name": "id",
          "type": "uint256"
        }
      ],
      "name": "AddPerson",
      "type": "event"
    },
    {
      "inputs": [
        {
          "internalType": "string",
          "name": "name",
          "type": "string"
        },
        {
          "internalType": "uint256",
          "name": "age",
          "type": "uint256"
        },
        {
          "internalType": "uint256",
          "name": "height",
          "type": "uint256"
        },
        {
          "internalType": "string",
          "name": "description",
          "type": "string"
        },
        {
          "internalType": "string",
          "name": "division",
          "type": "string"
        },
        {
          "internalType": "string",
          "name": "rel_num",
          "type": "string"
        }
      ],
      "name": "addPerson",
      "outputs": [],
      "stateMutability": "nonpayable",
      "type": "function"
    },
    {
      "inputs": [
        {
          "internalType": "string",
          "name": "division",
          "type": "string"
        }
      ],
      "name": "getPersonsByDivision",
      "outputs": [
        {
          "components": [
            {
              "internalType": "uint256",
              "name": "id",
              "type": "uint256"
            },
            {
              "internalType": "string",
              "name": "name",
              "type": "string"
            },
            {
              "internalType": "uint256",
              "name": "age",
              "type": "uint256"
            },
            {
              "internalType": "uint256",
              "name": "height",
              "type": "uint256"
            },
            {
              "internalType": "string",
              "name": "description",
              "type": "string"
            },
            {
              "internalType": "string",
              "name": "division",
              "type": "string"
            },
            {
              "internalType": "string",
              "name": "rel_num",
              "type": "string"
            }
          ],
          "internalType": "struct MissingDiaries.MissingPerson[]",
          "name": "",
          "type": "tuple[]"
        }
      ],
      "stateMutability": "view",
      "type": "function",
      "constant": true
    },
    {
      "inputs": [],
      "name": "getAllPersons",
      "outputs": [
        {
          "components": [
            {
              "internalType": "uint256",
              "name": "id",
              "type": "uint256"
            },
            {
              "internalType": "string",
              "name": "name",
              "type": "string"
            },
            {
              "internalType": "uint256",
              "name": "age",
              "type": "uint256"
            },
            {
              "internalType": "uint256",
              "name": "height",
              "type": "uint256"
            },
            {
              "internalType": "string",
              "name": "description",
              "type": "string"
            },
            {
              "internalType": "string",
              "name": "division",
              "type": "string"
            },
            {
              "internalType": "string",
              "name": "rel_num",
              "type": "string"
            }
          ],
          "internalType": "struct MissingDiaries.MissingPerson[]",
          "name": "",
          "type": "tuple[]"
        }
      ],
      "stateMutability": "view",
      "type": "function",
      "constant": true
    }
  ],
  "bytecode": "0x608060405234801561001057600080fd5b5061107b806100206000396000f3fe608060405234801561001057600080fd5b50600436106100415760003560e01c80637fa4ba8714610046578063c8b615da14610064578063d1c7a47d14610080575b600080fd5b61004e6100b0565b60405161005b9190610b96565b60405180910390f35b61007e60048036038101906100799190610d2d565b610375565b005b61009a60048036038101906100959190610e2a565b6104f7565b6040516100a79190610b96565b60405180910390f35b60606000805480602002602001604051908101604052809291908181526020016000905b8282101561036c57838290600052602060002090600702016040518060e00160405290816000820154815260200160018201805461011190610ea2565b80601f016020809104026020016040519081016040528092919081815260200182805461013d90610ea2565b801561018a5780601f1061015f5761010080835404028352916020019161018a565b820191906000526020600020905b81548152906001019060200180831161016d57829003601f168201915b5050505050815260200160028201548152602001600382015481526020016004820180546101b790610ea2565b80601f01602080910402602001604051908101604052809291908181526020018280546101e390610ea2565b80156102305780601f1061020557610100808354040283529160200191610230565b820191906000526020600020905b81548152906001019060200180831161021357829003601f168201915b5050505050815260200160058201805461024990610ea2565b80601f016020809104026020016040519081016040528092919081815260200182805461027590610ea2565b80156102c25780601f10610297576101008083540402835291602001916102c2565b820191906000526020600020905b8154815290600101906020018083116102a557829003601f168201915b505050505081526020016006820180546102db90610ea2565b80601f016020809104026020016040519081016040528092919081815260200182805461030790610ea2565b80156103545780601f1061032957610100808354040283529160200191610354565b820191906000526020600020905b81548152906001019060200180831161033757829003601f168201915b505050505081525050815260200190600101906100d4565b50505050905090565b60008080549050905060006040518060e00160405280838152602001898152602001888152602001878152602001868152602001858152602001848152509080600181540180825580915050600190039060005260206000209060070201600090919091909150600082015181600001556020820151816001019080519060200190610402929190610891565b5060408201518160020155606082015181600301556080820151816004019080519060200190610433929190610891565b5060a0820151816005019080519060200190610450929190610891565b5060c082015181600601908051906020019061046d929190610891565b5050506001836040516104809190610f0f565b90815260200160405180910390208190806001815401808255809150506001900390600052602060002001600090919091909150557f1478b62451638f35dad1252bc4333121caf87e09f3f87c5f066710a5fdbc8b2833826040516104e6929190610f76565b60405180910390a150505050505050565b6060600060018360405161050b9190610f0f565b908152602001604051809103902080549050905060008167ffffffffffffffff81111561053b5761053a610bd6565b5b60405190808252806020026020018201604052801561057457816020015b610561610917565b8152602001906001900390816105595790505b50905060005b828110156108865760006001866040516105949190610f0f565b908152602001604051809103902082815481106105b4576105b3610f9f565b5b90600052602060002001549050600081815481106105d5576105d4610f9f565b5b90600052602060002090600702016040518060e00160405290816000820154815260200160018201805461060890610ea2565b80601f016020809104026020016040519081016040528092919081815260200182805461063490610ea2565b80156106815780601f1061065657610100808354040283529160200191610681565b820191906000526020600020905b81548152906001019060200180831161066457829003601f168201915b5050505050815260200160028201548152602001600382015481526020016004820180546106ae90610ea2565b80601f01602080910402602001604051908101604052809291908181526020018280546106da90610ea2565b80156107275780601f106106fc57610100808354040283529160200191610727565b820191906000526020600020905b81548152906001019060200180831161070a57829003601f168201915b5050505050815260200160058201805461074090610ea2565b80601f016020809104026020016040519081016040528092919081815260200182805461076c90610ea2565b80156107b95780601f1061078e576101008083540402835291602001916107b9565b820191906000526020600020905b81548152906001019060200180831161079c57829003601f168201915b505050505081526020016006820180546107d290610ea2565b80601f01602080910402602001604051908101604052809291908181526020018280546107fe90610ea2565b801561084b5780601f106108205761010080835404028352916020019161084b565b820191906000526020600020905b81548152906001019060200180831161082e57829003601f168201915b50505050508152505083838151811061086757610866610f9f565b5b602002602001018190525050808061087e90610ffd565b91505061057a565b508092505050919050565b82805461089d90610ea2565b90600052602060002090601f0160209004810192826108bf5760008555610906565b82601f106108d857805160ff1916838001178555610906565b82800160010185558215610906579182015b828111156109055782518255916020019190600101906108ea565b5b5090506109139190610954565b5090565b6040518060e00160405280600081526020016060815260200160008152602001600081526020016060815260200160608152602001606081525090565b5b8082111561096d576000816000905550600101610955565b5090565b600081519050919050565b600082825260208201905092915050565b6000819050602082019050919050565b6000819050919050565b6109b08161099d565b82525050565b600081519050919050565b600082825260208201905092915050565b60005b838110156109f05780820151818401526020810190506109d5565b838111156109ff576000848401525b50505050565b6000601f19601f8301169050919050565b6000610a21826109b6565b610a2b81856109c1565b9350610a3b8185602086016109d2565b610a4481610a05565b840191505092915050565b600060e083016000830151610a6760008601826109a7565b5060208301518482036020860152610a7f8282610a16565b9150506040830151610a9460408601826109a7565b506060830151610aa760608601826109a7565b5060808301518482036080860152610abf8282610a16565b91505060a083015184820360a0860152610ad98282610a16565b91505060c083015184820360c0860152610af38282610a16565b9150508091505092915050565b6000610b0c8383610a4f565b905092915050565b6000602082019050919050565b6000610b2c82610971565b610b36818561097c565b935083602082028501610b488561098d565b8060005b85811015610b845784840389528151610b658582610b00565b9450610b7083610b14565b925060208a01995050600181019050610b4c565b50829750879550505050505092915050565b60006020820190508181036000830152610bb08184610b21565b905092915050565b6000604051905090565b600080fd5b600080fd5b600080fd5b600080fd5b7f4e487b7100000000000000000000000000000000000000000000000000000000600052604160045260246000fd5b610c0e82610a05565b810181811067ffffffffffffffff82111715610c2d57610c2c610bd6565b5b80604052505050565b6000610c40610bb8565b9050610c4c8282610c05565b919050565b600067ffffffffffffffff821115610c6c57610c6b610bd6565b5b610c7582610a05565b9050602081019050919050565b82818337600083830152505050565b6000610ca4610c9f84610c51565b610c36565b905082815260208101848484011115610cc057610cbf610bd1565b5b610ccb848285610c82565b509392505050565b600082601f830112610ce857610ce7610bcc565b5b8135610cf8848260208601610c91565b91505092915050565b610d0a8161099d565b8114610d1557600080fd5b50565b600081359050610d2781610d01565b92915050565b60008060008060008060c08789031215610d4a57610d49610bc2565b5b600087013567ffffffffffffffff811115610d6857610d67610bc7565b5b610d7489828a01610cd3565b9650506020610d8589828a01610d18565b9550506040610d9689828a01610d18565b945050606087013567ffffffffffffffff811115610db757610db6610bc7565b5b610dc389828a01610cd3565b935050608087013567ffffffffffffffff811115610de457610de3610bc7565b5b610df089828a01610cd3565b92505060a087013567ffffffffffffffff811115610e1157610e10610bc7565b5b610e1d89828a01610cd3565b9150509295509295509295565b600060208284031215610e4057610e3f610bc2565b5b600082013567ffffffffffffffff811115610e5e57610e5d610bc7565b5b610e6a84828501610cd3565b91505092915050565b7f4e487b7100000000000000000000000000000000000000000000000000000000600052602260045260246000fd5b60006002820490506001821680610eba57607f821691505b602082108103610ecd57610ecc610e73565b5b50919050565b600081905092915050565b6000610ee9826109b6565b610ef38185610ed3565b9350610f038185602086016109d2565b80840191505092915050565b6000610f1b8284610ede565b915081905092915050565b600073ffffffffffffffffffffffffffffffffffffffff82169050919050565b6000610f5182610f26565b9050919050565b610f6181610f46565b82525050565b610f708161099d565b82525050565b6000604082019050610f8b6000830185610f58565b610f986020830184610f67565b9392505050565b7f4e487b7100000000000000000000000000000000000000000000000000000000600052603260045260246000fd5b7f4e487b7100000000000000000000000000000000000000000000000000000000600052601160045260246000fd5b60006110088261099d565b91507fffffffffffffffffffffffffffffffffffffffffffffffffffffffffffffffff820361103a57611039610fce565b5b60018201905091905056fea2646970667358221220fbe7b60031fcc4e14344d0f85529caedb5d8e1aa84f2a7b40769f470df94e1ab64736f6c634300080d0033",
  "immutableReferences": {},
  "source": "// SPDX-License-Identifier: MIT\npragma solidity ^0.8.13;\n\ncontract MissingDiaries {\n    event AddPerson(address recipient, uint256 id);\n\n    struct MissingPerson {\n        uint256 id;\n        string name;\n        uint256 age;\n        uint256 height;\n        string description;\n        string division;\n        string rel_num;\n    }\n\n    MissingPerson[] missingperson_array;\n\n    mapping(string => uint256[]) divisionToPersons;\n\n    function addPerson(\n        string memory name,\n        uint256 age,\n        uint256 height,\n        string memory description,\n        string memory division,\n        string memory rel_num\n    ) external {\n        uint256 id = missingperson_array.length;\n\n        missingperson_array.push(\n            MissingPerson(id, name, age, height, description, division, rel_num)\n        );\n\n        divisionToPersons[division].push(id);\n\n        emit AddPerson(msg.sender, id);\n    }\n\n    function getPersonsByDivision(string memory division)\n        external\n        view\n        returns (MissingPerson[] memory)\n    {\n        uint256 len = divisionToPersons[division].length;\n\n        MissingPerson[] memory persons = new MissingPerson[](len);\n\n        for (uint256 i = 0; i < len; i++) {\n            uint256 x = divisionToPersons[division][i];\n            persons[i] = missingperson_array[x];\n        }\n\n        return persons;\n    }\n\n    function getAllPersons() external view returns (MissingPerson[] memory) {\n        return missingperson_array;\n    }\n}\n",
  "sourcePath": "/home/danial/study/cse446/missingdiaries/contracts/MissingDiaries.sol",
  "compiler": {
    "name": "solc",
    "version": "0.8.13+commit.abaa5c0e.Emscripten.clang"
  },
  "schemaVersion": "3.4.11",
  "updatedAt": "2022-12-18T09:07:25.826Z",
  "networkType": "ethereum",
  "devdoc": {
    "kind": "dev",
    "methods": {},
    "version": 1
  },
  "userdoc": {
    "kind": "user",
    "methods": {},
    "version": 1
  }
}